{
  "contractName": "DataManagement",
  "abi": [
    {
      "constant": true,
      "inputs": [],
      "name": "blockHashNow",
      "outputs": [
        {
          "name": "",
          "type": "bytes32"
        }
      ],
      "payable": false,
      "stateMutability": "view",
      "type": "function"
    },
    {
      "constant": true,
      "inputs": [
        {
          "name": "",
          "type": "address"
        },
        {
          "name": "",
          "type": "uint256"
        }
      ],
      "name": "acl_keeper",
      "outputs": [
        {
          "name": "",
          "type": "address"
        }
      ],
      "payable": false,
      "stateMutability": "view",
      "type": "function"
    },
    {
      "constant": true,
      "inputs": [
        {
          "name": "",
          "type": "address"
        }
      ],
      "name": "acl_keeper_count",
      "outputs": [
        {
          "name": "",
          "type": "uint256"
        }
      ],
      "payable": false,
      "stateMutability": "view",
      "type": "function"
    },
    {
      "constant": true,
      "inputs": [
        {
          "name": "",
          "type": "address"
        },
        {
          "name": "",
          "type": "address"
        }
      ],
      "name": "requestlist",
      "outputs": [
        {
          "name": "",
          "type": "uint8"
        }
      ],
      "payable": false,
      "stateMutability": "view",
      "type": "function"
    },
    {
      "constant": true,
      "inputs": [
        {
          "name": "",
          "type": "bytes32"
        }
      ],
      "name": "tokenlist",
      "outputs": [
        {
          "name": "ownerID",
          "type": "address"
        },
        {
          "name": "tpID",
          "type": "address"
        },
        {
          "name": "permission",
          "type": "uint256"
        },
        {
          "name": "issued_at",
          "type": "uint256"
        },
        {
          "name": "expired_in",
          "type": "uint256"
        },
        {
          "name": "refresh_count",
          "type": "uint256"
        },
        {
          "name": "validity",
          "type": "bool"
        }
      ],
      "payable": false,
      "stateMutability": "view",
      "type": "function"
    },
    {
      "constant": true,
      "inputs": [],
      "name": "blockNumber",
      "outputs": [
        {
          "name": "",
          "type": "uint256"
        }
      ],
      "payable": false,
      "stateMutability": "view",
      "type": "function"
    },
    {
      "constant": true,
      "inputs": [
        {
          "name": "",
          "type": "address"
        }
      ],
      "name": "auth_ledger",
      "outputs": [
        {
          "name": "dataPointer",
          "type": "string"
        },
        {
          "name": "dataHash",
          "type": "string"
        },
        {
          "name": "flag",
          "type": "uint8"
        }
      ],
      "payable": false,
      "stateMutability": "view",
      "type": "function"
    },
    {
      "constant": true,
      "inputs": [
        {
          "name": "",
          "type": "address"
        }
      ],
      "name": "request_list_count",
      "outputs": [
        {
          "name": "",
          "type": "uint256"
        }
      ],
      "payable": false,
      "stateMutability": "view",
      "type": "function"
    },
    {
      "constant": true,
      "inputs": [
        {
          "name": "",
          "type": "address"
        },
        {
          "name": "",
          "type": "uint256"
        }
      ],
      "name": "request_list_keeper",
      "outputs": [
        {
          "name": "",
          "type": "address"
        }
      ],
      "payable": false,
      "stateMutability": "view",
      "type": "function"
    },
    {
      "constant": true,
      "inputs": [
        {
          "name": "",
          "type": "address"
        },
        {
          "name": "",
          "type": "address"
        }
      ],
      "name": "aclists",
      "outputs": [
        {
          "name": "permission",
          "type": "uint8"
        },
        {
          "name": "token",
          "type": "bytes32"
        }
      ],
      "payable": false,
      "stateMutability": "view",
      "type": "function"
    },
    {
      "inputs": [],
      "payable": false,
      "stateMutability": "nonpayable",
      "type": "constructor"
    },
    {
      "anonymous": false,
      "inputs": [
        {
          "indexed": false,
          "name": "_address",
          "type": "address"
        },
        {
          "indexed": false,
          "name": "_dataPointer",
          "type": "string"
        },
        {
          "indexed": false,
          "name": "_dataHash",
          "type": "string"
        }
      ],
      "name": "uploadDataEvent",
      "type": "event"
    },
    {
      "anonymous": false,
      "inputs": [
        {
          "indexed": false,
          "name": "token",
          "type": "bytes32"
        }
      ],
      "name": "grantAccessEvent",
      "type": "event"
    },
    {
      "constant": false,
      "inputs": [
        {
          "name": "_owner",
          "type": "address"
        },
        {
          "name": "_dataPointer",
          "type": "string"
        },
        {
          "name": "_dataHash",
          "type": "string"
        }
      ],
      "name": "uploadData",
      "outputs": [],
      "payable": false,
      "stateMutability": "nonpayable",
      "type": "function"
    },
    {
      "constant": false,
      "inputs": [
        {
          "name": "_owner",
          "type": "address"
        },
        {
          "name": "_thirdparty",
          "type": "address"
        },
        {
          "name": "_permission",
          "type": "uint8"
        }
      ],
      "name": "grantAccess",
      "outputs": [],
      "payable": false,
      "stateMutability": "nonpayable",
      "type": "function"
    },
    {
      "constant": false,
      "inputs": [
        {
          "name": "_callerId",
          "type": "address"
        },
        {
          "name": "_token",
          "type": "bytes32"
        }
      ],
      "name": "validateAccess",
      "outputs": [],
      "payable": false,
      "stateMutability": "nonpayable",
      "type": "function"
    },
    {
      "constant": false,
      "inputs": [
        {
          "name": "_requester",
          "type": "address"
        },
        {
          "name": "_owner",
          "type": "address"
        },
        {
          "name": "_permission",
          "type": "uint8"
        }
      ],
      "name": "requestAccess",
      "outputs": [],
      "payable": false,
      "stateMutability": "nonpayable",
      "type": "function"
    }
  ],
  "bytecode": "0x608060405234801561001057600080fd5b50611da4806100206000396000f3006080604052600436106100d0576000357c0100000000000000000000000000000000000000000000000000000000900463ffffffff168063124055c8146100d5578063149dfec2146101265780631c01bb3e1461015957806327e72cfd146101e6578063383f3a9d146102b55780634e6351341461030c5780634ed15c811461037c5780634f550db2146103f957806357e871e7146104c457806379082539146104ef578063ad933e0814610624578063dc1dbe3a1461067b578063f33b80e314610708578063f79a61f714610794575b600080fd5b3480156100e157600080fd5b50610124600480360381019080803573ffffffffffffffffffffffffffffffffffffffff1690602001909291908035600019169060200190929190505050610804565b005b34801561013257600080fd5b5061013b610880565b60405180826000191660001916815260200191505060405180910390f35b34801561016557600080fd5b506101a4600480360381019080803573ffffffffffffffffffffffffffffffffffffffff16906020019092919080359060200190929190505050610886565b604051808273ffffffffffffffffffffffffffffffffffffffff1673ffffffffffffffffffffffffffffffffffffffff16815260200191505060405180910390f35b3480156101f257600080fd5b506102b3600480360381019080803573ffffffffffffffffffffffffffffffffffffffff169060200190929190803590602001908201803590602001908080601f0160208091040260200160405190810160405280939291908181526020018383808284378201915050505050509192919290803590602001908201803590602001908080601f01602080910402602001604051908101604052809392919081815260200183838082843782019150505050505091929192905050506108d3565b005b3480156102c157600080fd5b506102f6600480360381019080803573ffffffffffffffffffffffffffffffffffffffff169060200190929190505050610c1b565b6040518082815260200191505060405180910390f35b34801561031857600080fd5b5061037a600480360381019080803573ffffffffffffffffffffffffffffffffffffffff169060200190929190803573ffffffffffffffffffffffffffffffffffffffff169060200190929190803560ff169060200190929190505050610c33565b005b34801561038857600080fd5b506103dd600480360381019080803573ffffffffffffffffffffffffffffffffffffffff169060200190929190803573ffffffffffffffffffffffffffffffffffffffff16906020019092919050505061158d565b604051808260ff1660ff16815260200191505060405180910390f35b34801561040557600080fd5b5061042860048036038101908080356000191690602001909291905050506115bc565b604051808873ffffffffffffffffffffffffffffffffffffffff1673ffffffffffffffffffffffffffffffffffffffff1681526020018773ffffffffffffffffffffffffffffffffffffffff1673ffffffffffffffffffffffffffffffffffffffff1681526020018681526020018581526020018481526020018381526020018215151515815260200197505050505050505060405180910390f35b3480156104d057600080fd5b506104d961164b565b6040518082815260200191505060405180910390f35b3480156104fb57600080fd5b50610530600480360381019080803573ffffffffffffffffffffffffffffffffffffffff169060200190929190505050611651565b6040518080602001806020018460ff1660ff168152602001838103835286818151815260200191508051906020019080838360005b83811015610580578082015181840152602081019050610565565b50505050905090810190601f1680156105ad5780820380516001836020036101000a031916815260200191505b50838103825285818151815260200191508051906020019080838360005b838110156105e65780820151818401526020810190506105cb565b50505050905090810190601f1680156106135780820380516001836020036101000a031916815260200191505b509550505050505060405180910390f35b34801561063057600080fd5b50610665600480360381019080803573ffffffffffffffffffffffffffffffffffffffff1690602001909291905050506117b8565b6040518082815260200191505060405180910390f35b34801561068757600080fd5b506106c6600480360381019080803573ffffffffffffffffffffffffffffffffffffffff169060200190929190803590602001909291905050506117d0565b604051808273ffffffffffffffffffffffffffffffffffffffff1673ffffffffffffffffffffffffffffffffffffffff16815260200191505060405180910390f35b34801561071457600080fd5b50610769600480360381019080803573ffffffffffffffffffffffffffffffffffffffff169060200190929190803573ffffffffffffffffffffffffffffffffffffffff16906020019092919050505061181d565b604051808360ff1660ff16815260200182600019166000191681526020019250505060405180910390f35b3480156107a057600080fd5b50610802600480360381019080803573ffffffffffffffffffffffffffffffffffffffff169060200190929190803573ffffffffffffffffffffffffffffffffffffffff169060200190929190803560ff16906020019092919050505061185b565b005b8173ffffffffffffffffffffffffffffffffffffffff163373ffffffffffffffffffffffffffffffffffffffff1614151561083e57600080fd5b6001151560016000836000191660001916815260200190815260200160002060060160009054906101000a900460ff16151514151561087c57600080fd5b5050565b60095481565b6003602052816000526040600020818154811015156108a157fe5b906000526020600020016000915091509054906101000a900473ffffffffffffffffffffffffffffffffffffffff1681565b8273ffffffffffffffffffffffffffffffffffffffff163373ffffffffffffffffffffffffffffffffffffffff1614151561090d57600080fd5b6001600260008573ffffffffffffffffffffffffffffffffffffffff1673ffffffffffffffffffffffffffffffffffffffff16815260200190815260200160002060020160009054906101000a900460ff1660ff161415610a1b5781600260008573ffffffffffffffffffffffffffffffffffffffff1673ffffffffffffffffffffffffffffffffffffffff16815260200190815260200160002060000190805190602001906109be929190611c53565b5080600260008573ffffffffffffffffffffffffffffffffffffffff1673ffffffffffffffffffffffffffffffffffffffff1681526020019081526020016000206001019080519060200190610a15929190611c53565b50610ad9565b606060405190810160405280838152602001828152602001600160ff16815250600260008573ffffffffffffffffffffffffffffffffffffffff1673ffffffffffffffffffffffffffffffffffffffff1681526020019081526020016000206000820151816000019080519060200190610a96929190611cd3565b506020820151816001019080519060200190610ab3929190611cd3565b5060408201518160020160006101000a81548160ff021916908360ff1602179055509050505b7f088f6cc4ef58622e0f5d4c575cd49a2170356a58c3d2d648461f38f4b93fbb11838383604051808473ffffffffffffffffffffffffffffffffffffffff1673ffffffffffffffffffffffffffffffffffffffff1681526020018060200180602001838103835285818151815260200191508051906020019080838360005b83811015610b73578082015181840152602081019050610b58565b50505050905090810190601f168015610ba05780820380516001836020036101000a031916815260200191505b50838103825284818151815260200191508051906020019080838360005b83811015610bd9578082015181840152602081019050610bbe565b50505050905090810190601f168015610c065780820380516001836020036101000a031916815260200191505b509550505050505060405180910390a1505050565b60046020528060005260406000206000915090505481565b60008373ffffffffffffffffffffffffffffffffffffffff163373ffffffffffffffffffffffffffffffffffffffff16141515610c6f57600080fd5b6001600260008673ffffffffffffffffffffffffffffffffffffffff1673ffffffffffffffffffffffffffffffffffffffff16815260200190815260200160002060020160009054906101000a900460ff1660ff16141515610cd057600080fd5b60008060008673ffffffffffffffffffffffffffffffffffffffff1673ffffffffffffffffffffffffffffffffffffffff16815260200190815260200160002060008573ffffffffffffffffffffffffffffffffffffffff1673ffffffffffffffffffffffffffffffffffffffff16815260200190815260200160002060000160009054906101000a900460ff1660ff161115610f45576000808573ffffffffffffffffffffffffffffffffffffffff1673ffffffffffffffffffffffffffffffffffffffff16815260200190815260200160002060008473ffffffffffffffffffffffffffffffffffffffff1673ffffffffffffffffffffffffffffffffffffffff1681526020019081526020016000206001015490508160ff166000808673ffffffffffffffffffffffffffffffffffffffff1673ffffffffffffffffffffffffffffffffffffffff16815260200190815260200160002060008573ffffffffffffffffffffffffffffffffffffffff1673ffffffffffffffffffffffffffffffffffffffff16815260200190815260200160002060000160009054906101000a900460ff1660ff16141515610f4057816000808673ffffffffffffffffffffffffffffffffffffffff1673ffffffffffffffffffffffffffffffffffffffff16815260200190815260200160002060008573ffffffffffffffffffffffffffffffffffffffff1673ffffffffffffffffffffffffffffffffffffffff16815260200190815260200160002060000160006101000a81548160ff021916908360ff1602179055508160ff16600160008360001916600019168152602001908152602001600020600201819055505b61141c565b600360008573ffffffffffffffffffffffffffffffffffffffff1673ffffffffffffffffffffffffffffffffffffffff1681526020019081526020016000208390806001815401808255809150509060018203906000526020600020016000909192909190916101000a81548173ffffffffffffffffffffffffffffffffffffffff021916908373ffffffffffffffffffffffffffffffffffffffff160217905550506000600460008673ffffffffffffffffffffffffffffffffffffffff1673ffffffffffffffffffffffffffffffffffffffff16815260200190815260200160002054111561108457600460008573ffffffffffffffffffffffffffffffffffffffff1673ffffffffffffffffffffffffffffffffffffffff168152602001908152602001600020600081548092919060010191905055506110ca565b6001600460008673ffffffffffffffffffffffffffffffffffffffff1673ffffffffffffffffffffffffffffffffffffffff168152602001908152602001600020819055505b4360088190555060085440600981600019169055508383600954604051602001808473ffffffffffffffffffffffffffffffffffffffff1673ffffffffffffffffffffffffffffffffffffffff166c010000000000000000000000000281526014018373ffffffffffffffffffffffffffffffffffffffff1673ffffffffffffffffffffffffffffffffffffffff166c01000000000000000000000000028152601401826000191660001916815260200193505050506040516020818303038152906040526040518082805190602001908083835b6020831015156111c4578051825260208201915060208101905060208303925061119f565b6001836020036101000a0380198251168184511680821785525050505050509050019150506040518091039020905060e0604051908101604052808573ffffffffffffffffffffffffffffffffffffffff1681526020018473ffffffffffffffffffffffffffffffffffffffff1681526020018360ff168152602001428152602001610bb88152602001600181526020016001151581525060016000836000191660001916815260200190815260200160002060008201518160000160006101000a81548173ffffffffffffffffffffffffffffffffffffffff021916908373ffffffffffffffffffffffffffffffffffffffff16021790555060208201518160010160006101000a81548173ffffffffffffffffffffffffffffffffffffffff021916908373ffffffffffffffffffffffffffffffffffffffff16021790555060408201518160020155606082015181600301556080820151816004015560a0820151816005015560c08201518160060160006101000a81548160ff02191690831515021790555090505060408051908101604052808360ff16815260200182600019168152506000808673ffffffffffffffffffffffffffffffffffffffff1673ffffffffffffffffffffffffffffffffffffffff16815260200190815260200160002060008573ffffffffffffffffffffffffffffffffffffffff1673ffffffffffffffffffffffffffffffffffffffff16815260200190815260200160002060008201518160000160006101000a81548160ff021916908360ff160217905550602082015181600101906000191690559050505b6000600560008673ffffffffffffffffffffffffffffffffffffffff1673ffffffffffffffffffffffffffffffffffffffff16815260200190815260200160002060008573ffffffffffffffffffffffffffffffffffffffff1673ffffffffffffffffffffffffffffffffffffffff16815260200190815260200160002060009054906101000a900460ff1660ff161115611548576063600560008673ffffffffffffffffffffffffffffffffffffffff1673ffffffffffffffffffffffffffffffffffffffff16815260200190815260200160002060008573ffffffffffffffffffffffffffffffffffffffff1673ffffffffffffffffffffffffffffffffffffffff16815260200190815260200160002060006101000a81548160ff021916908360ff1602179055505b7f44e9542653dd814dc8c5b44e4c20d477e5468a5862011f00c02e8512496eccf48160405180826000191660001916815260200191505060405180910390a150505050565b60056020528160005260406000206020528060005260406000206000915091509054906101000a900460ff1681565b60016020528060005260406000206000915090508060000160009054906101000a900473ffffffffffffffffffffffffffffffffffffffff16908060010160009054906101000a900473ffffffffffffffffffffffffffffffffffffffff16908060020154908060030154908060040154908060050154908060060160009054906101000a900460ff16905087565b60085481565b6002602052806000526040600020600091509050806000018054600181600116156101000203166002900480601f0160208091040260200160405190810160405280929190818152602001828054600181600116156101000203166002900480156116fd5780601f106116d2576101008083540402835291602001916116fd565b820191906000526020600020905b8154815290600101906020018083116116e057829003601f168201915b505050505090806001018054600181600116156101000203166002900480601f01602080910402602001604051908101604052809291908181526020018280546001816001161561010002031660029004801561179b5780601f106117705761010080835404028352916020019161179b565b820191906000526020600020905b81548152906001019060200180831161177e57829003601f168201915b5050505050908060020160009054906101000a900460ff16905083565b60066020528060005260406000206000915090505481565b6007602052816000526040600020818154811015156117eb57fe5b906000526020600020016000915091509054906101000a900473ffffffffffffffffffffffffffffffffffffffff1681565b6000602052816000526040600020602052806000526040600020600091509150508060000160009054906101000a900460ff16908060010154905082565b8273ffffffffffffffffffffffffffffffffffffffff163373ffffffffffffffffffffffffffffffffffffffff1614151561189557600080fd5b6001600260008473ffffffffffffffffffffffffffffffffffffffff1673ffffffffffffffffffffffffffffffffffffffff16815260200190815260200160002060020160009054906101000a900460ff1660ff161415156118f657600080fd5b6000600560008473ffffffffffffffffffffffffffffffffffffffff1673ffffffffffffffffffffffffffffffffffffffff16815260200190815260200160002060008573ffffffffffffffffffffffffffffffffffffffff1673ffffffffffffffffffffffffffffffffffffffff16815260200190815260200160002060009054906101000a900460ff1660ff16111561199057611bb9565b6000600660008473ffffffffffffffffffffffffffffffffffffffff1673ffffffffffffffffffffffffffffffffffffffff168152602001908152602001600020541115611acf57600760008373ffffffffffffffffffffffffffffffffffffffff1673ffffffffffffffffffffffffffffffffffffffff1681526020019081526020016000208390806001815401808255809150509060018203906000526020600020016000909192909190916101000a81548173ffffffffffffffffffffffffffffffffffffffff021916908373ffffffffffffffffffffffffffffffffffffffff16021790555050600660008373ffffffffffffffffffffffffffffffffffffffff1673ffffffffffffffffffffffffffffffffffffffff16815260200190815260200160002060008154809291906001019190505550611bb8565b600760008373ffffffffffffffffffffffffffffffffffffffff1673ffffffffffffffffffffffffffffffffffffffff1681526020019081526020016000208390806001815401808255809150509060018203906000526020600020016000909192909190916101000a81548173ffffffffffffffffffffffffffffffffffffffff021916908373ffffffffffffffffffffffffffffffffffffffff160217905550506001600660008473ffffffffffffffffffffffffffffffffffffffff1673ffffffffffffffffffffffffffffffffffffffff168152602001908152602001600020819055505b5b80600560008473ffffffffffffffffffffffffffffffffffffffff1673ffffffffffffffffffffffffffffffffffffffff16815260200190815260200160002060008573ffffffffffffffffffffffffffffffffffffffff1673ffffffffffffffffffffffffffffffffffffffff16815260200190815260200160002060006101000a81548160ff021916908360ff160217905550505050565b828054600181600116156101000203166002900490600052602060002090601f016020900481019282601f10611c9457805160ff1916838001178555611cc2565b82800160010185558215611cc2579182015b82811115611cc1578251825591602001919060010190611ca6565b5b509050611ccf9190611d53565b5090565b828054600181600116156101000203166002900490600052602060002090601f016020900481019282601f10611d1457805160ff1916838001178555611d42565b82800160010185558215611d42579182015b82811115611d41578251825591602001919060010190611d26565b5b509050611d4f9190611d53565b5090565b611d7591905b80821115611d71576000816000905550600101611d59565b5090565b905600a165627a7a7230582020806d225217e7b941504bc1ba5c07b7211832ac28441a31692cdeaf17e1046e0029",
  "source": "pragma solidity >=0.4.25;\n\ncontract DataManagement {\n    \n\tstruct AuthLedger {\n\t\tstring dataPointer;\n\t\tstring dataHash;\n\t\tuint8 flag;\n\t}\n\n\tstruct Dataset {\n\t\tuint datasetId;\n\t\taddress owner;\n\t\taddress sp;\n\t\tstring dataPointer;\n\t}\n\n\tstruct Acl {\n\t\tuint8 permission;\n\t\tbytes32 token;\n\t}\n\n\tstruct AccessToken {\n\t\t//There is no need to consider SP's ID here as we use only one SP in the demonstration\n\t\taddress ownerID;\n\t\taddress tpID; //thirdparty ID who requests to access data\n\t\t//string dataHash\n\t\tuint permission; //1-create;2-read;4-update;8-delete and sum of the operations\n\t\tuint256 issued_at; //Unix timestamp\n\t\tuint expired_in;\n\t\tuint refresh_count;\n\t\tbool validity;\n\t}\n\t\n\t/* We consider only one Service provider, thus there is no need to add SP's Id */\n\n    //mapping access control list for data owners\n    mapping(address => mapping(address => Acl)) public aclists;\n\t\t\n\t//mapping AccessToken for data owners\n\tmapping(bytes32 => AccessToken) public tokenlist;\n\n    // Auth_ledger\n    mapping(address => AuthLedger) public auth_ledger;\n\n\t// Access Control List Keeper for keep track of granted third-parties\n\t//mapping(address => AclKeeper) public acl_keeper;\n\tmapping(address => address[]) public acl_keeper;\n\tmapping(address => uint) public acl_keeper_count;\n\t\n\t//AccessRequest mapping shows a list of requesters with associated requested permissions corresponding to an data owner ID\n\tmapping(address => mapping(address => uint8)) public requestlist;\n\tmapping(address => uint) public request_list_count;\n\tmapping(address => address[]) public request_list_keeper;\n\t\n\n    // Token_ledger\n    // mapping(string => AccessToken) public token_ledger;\n\n\tuint public blockNumber;\n\tbytes32 public blockHashNow;\n\n    // Upload Data event\n    event uploadDataEvent (\n\t\t\taddress _address,\n\t\t\tstring _dataPointer,\n\t\t\tstring _dataHash\n    );\n\n\tevent grantAccessEvent(\n\t\tbytes32 token\n\t);\n\n    constructor () public {\n    }\n\n  \tfunction uploadData (address _owner, string memory _dataPointer, string memory _dataHash) public {\n\t\trequire(msg.sender == _owner);\n\n\t\tif(auth_ledger[_owner].flag == 1) { //owner has previously uploaded data\n\t    //update the ledger\n\t    auth_ledger[_owner].dataPointer = _dataPointer;\n\t    auth_ledger[_owner].dataHash = _dataHash;\n\t\t} else { //owner firstly upload data\n\t\t//initiate the Access Control List\n\t    //aclists[msg.sender][msg.sender] = Acl(16, ); //provide all permissions to the data owner\n\t\t//token = keccak256(abi.encodePacked(_owner, _thirdparty, blockHashNow));\n\n\t    auth_ledger[_owner] = AuthLedger(_dataPointer, _dataHash, 1);\n\t\t}\n\t\t//trigger uploadData event\n\t\temit uploadDataEvent(_owner, _dataPointer, _dataHash);\n  \t}\n\n\tfunction grantAccess (address _owner, address _thirdparty, uint8 _permission) public {\n\t\trequire(msg.sender == _owner);\n\t\trequire(auth_ledger[_owner].flag == 1); //owner have already uploaded data\n\n\t\tbytes32 token;\n\n\t\t// update the acl_keeper\t\t\n\t\tif (aclists[_owner][_thirdparty].permission > 0) { //thirdparty has already granted a permission -> update new permission\n\t\t\t// no need to update the acl_keeper\n\t\t\t// retrieve the Access Token\n\t\t\ttoken = aclists[_owner][_thirdparty].token;\n\t\t\tif (aclists[_owner][_thirdparty].permission != _permission){\n\t\t\t\t//update new permission\n\t\t\t\taclists[_owner][_thirdparty].permission = _permission;\n\t\t\t\ttokenlist[token].permission = _permission;\n\t\t\t}\n\n\t\t} else {\n\t\t\t// update the acl_keeper to add the thirdparty to the list of granted account\n\t\t\t//update acl_keeper ledger\n\t\t\tacl_keeper[_owner].push(_thirdparty);\n\t\t\t\n\t\t\tif (acl_keeper_count[_owner] > 0) {\n\t\t\t\tacl_keeper_count[_owner] ++;\n\t\t\t} else {\n\t\t\t\tacl_keeper_count[_owner] = 1;\n\t\t\t}\n\t\t\t\n\t\t\t//create token\n\t\t\tblockNumber = block.number;\n\t\t\tblockHashNow = blockhash(blockNumber);\n\t\t\ttoken = keccak256(abi.encodePacked(_owner, _thirdparty, blockHashNow));\n\t\t\t//create a pseudo-random access token with associated information\n\t\t\ttokenlist[token] = AccessToken(_owner, _thirdparty, _permission, block.timestamp, 3000, 1, true);\n\t\t\t\n\t\t\t//create aclists record\n\t\t\taclists[_owner][_thirdparty] = Acl(_permission, token);\n\t\t}\n\t\t\n\t\tif (requestlist[_owner][_thirdparty] > 0) {\n\t\t\t//the request has been fulfilled\n\t\t\trequestlist[_owner][_thirdparty] = 99;\n\t\t}\n\n\t\t//create or update permission\n\t\t//aclists[_owner][_thirdparty] = _permission;\n\t\temit grantAccessEvent(token);\n\t}\n\n\tfunction validateAccess(address _callerId, bytes32 _token) public {\n\t\trequire(msg.sender == _callerId);\n\t\trequire(tokenlist[_token].validity == true);\n\n\t}\n\t\n\tfunction requestAccess(address _requester, address _owner, uint8 _permission) public {\n\t\trequire(msg.sender == _requester);\n\t\trequire(auth_ledger[_owner].flag == 1); //owner should have already uploaded data\n\t\t\n\t\tif (requestlist[_owner][_requester] > 0) { //requester has been requested permission before\n\t\t\t//do nothing\n\t\t} else { // new request\n\t\t\tif (request_list_count[_owner] > 0) {\n\t\t\t\trequest_list_keeper[_owner].push(_requester);\t\t\n\t\t\t\trequest_list_count[_owner] ++ ;\n\t\t\t} else {\n\t\t\t\trequest_list_keeper[_owner].push(_requester);\t\t\n\t\t\t\trequest_list_count[_owner] = 1; //first request for the data owner\n\t\t\t}\n\t\t}\n\t\t//update the requestlist\n\t\trequestlist[_owner][_requester] = _permission;\n\t}\n}\n",
  "sourcePath": "/home/nguyentb/workspace/data-management/nguyentb.github.io/contracts/DataManagement.sol",
  "compiler": {
    "name": "solc",
    "version": "0.4.25+commit.59dbf8f1.Emscripten.clang"
  },
  "schemaVersion": "3.2.0",
  "updatedAt": "2020-11-23T17:14:23.097Z",
  "devdoc": {
    "methods": {}
  },
  "userdoc": {
    "methods": {}
  }
}